:020000040000fa
:080000000002040000000000f2
:020000040000fa
:04000800fc020000f6
:020000040000fa
:04000c00fc020000f2
:020000040000fa
:04001000fc020000ee
:020000040000fa
:04001400fc020000ea
:020000040000fa
:04001800fc020000e6
:020000040000fa
:04001c00fc020000e2
:020000040000fa
:04002000fc020000de
:020000040000fa
:04002400fc020000da
:020000040000fa
:04002800fc020000d6
:020000040000fa
:04002c00fc020000d2
:020000040000fa
:04003000fc020000ce
:020000040000fa
:04003400fc020000ca
:020000040000fa
:04003800fc020000c6
:020000040000fa
:04003c00fc020000c2
:020000040000fa
:04004000fc020000be
:020000040000fa
:04004400fc020000ba
:020000040000fa
:04004800fc020000b6
:020000040000fa
:04004c00fc020000b2
:020000040000fa
:04005000fc020000ae
:020000040000fa
:04005400fc020000aa
:020000040000fa
:04005800fc020000a6
:020000040000fa
:04005c00fc020000a2
:020000040000fa
:04006000fc0200009e
:020000040000fa
:04006400fc0200009a
:020000040000fa
:04006800fc02000096
:020000040000fa
:04006c00fc02000092
:020000040000fa
:04007000fc0200008e
:020000040000fa
:04007400fc0200008a
:020000040000fa
:04007800fc02000086
:020000040000fa
:04007c00fc02000082
:020000040000fa
:04008000fc0200007e
:020000040000fa
:04008400fc0200007a
:020000040000fa
:04008800fc02000076
:020000040000fa
:04008c00fc02000072
:020000040000fa
:04009000fc0200006e
:020000040000fa
:04009400fc0200006a
:020000040000fa
:04009800fc02000066
:020000040000fa
:04009c00fc02000062
:020000040000fa
:0400a000fc0200005e
:020000040000fa
:0400a400fc0200005a
:020000040000fa
:0400a800fc02000056
:020000040000fa
:0400ac00fc02000052
:020000040000fa
:0400b000fc0200004e
:020000040000fa
:0400b400fc0200004a
:020000040000fa
:0400b800fc02000046
:020000040000fa
:0400bc00fc02000042
:020000040000fa
:0400c000fc0200003e
:020000040000fa
:0400c400fc0200003a
:020000040000fa
:0400c800fc02000036
:020000040000fa
:0400cc00fc02000032
:020000040000fa
:0400d000fc0200002e
:020000040000fa
:0400d400fc0200002a
:020000040000fa
:0400d800fc02000026
:020000040000fa
:0400dc00fc02000022
:020000040000fa
:0400e000fc0200001e
:020000040000fa
:0400e400fc0200001a
:020000040000fa
:0400e800fc02000016
:020000040000fa
:0400ec00fc02000012
:020000040000fa
:0400f000fc0200000e
:020000040000fa
:0400f400fc0200000a
:020000040000fa
:0400f800fc02000006
:020000040000fa
:0400fc00fc02000002
:020000040000fa
:04010000fc020000fd
:020000040000fa
:04010400fc020000f9
:020000040000fa
:04010800fc020000f5
:020000040000fa
:04010c00fc020000f1
:020000040000fa
:04011000fc020000ed
:020000040000fa
:04011400fc020000e9
:020000040000fa
:04011800fc020000e5
:020000040000fa
:04011c00fc020000e1
:020000040000fa
:04012000fc020000dd
:020000040000fa
:04012400fc020000d9
:020000040000fa
:04012800fc020000d5
:020000040000fa
:04012c00fc020000d1
:020000040000fa
:04013000fc020000cd
:020000040000fa
:04013400fc020000c9
:020000040000fa
:04013800fc020000c5
:020000040000fa
:04013c00fc020000c1
:020000040000fa
:04014000fc020000bd
:020000040000fa
:04014400fc020000b9
:020000040000fa
:04014800fc020000b5
:020000040000fa
:04014c00fc020000b1
:020000040000fa
:04015000fc020000ad
:020000040000fa
:04015400fc020000a9
:020000040000fa
:04015800fc020000a5
:020000040000fa
:04015c00fc020000a1
:020000040000fa
:04016000fc0200009d
:020000040000fa
:04016400fc02000099
:020000040000fa
:04016800fc02000095
:020000040000fa
:04016c00fc02000091
:020000040000fa
:04017000fc0200008d
:020000040000fa
:04017400fc02000089
:020000040000fa
:04017800fc02000085
:020000040000fa
:04017c00fc02000081
:020000040000fa
:04018000fc0200007d
:020000040000fa
:04020800fc020000f4
:020000040000fa
:04020c00fc020000f0
:020000040000fa
:04021000fc020000ec
:020000040000fa
:04021400fc020000e8
:020000040000fa
:04021800fc020000e4
:020000040000fa
:04021c00fc020000e0
:020000040000fa
:04022000fc020000dc
:020000040000fa
:04022400fc020000d8
:020000040000fa
:04022800fc020000d4
:020000040000fa
:04022c00fc020000d0
:020000040000fa
:04023000fc020000cc
:020000040000fa
:04023400fc020000c8
:020000040000fa
:04023800fc020000c4
:020000040000fa
:04023c00fc020000c0
:020000040000fa
:04024000fc020000bc
:020000040000fa
:04024400fc020000b8
:020000040000fa
:04024800fc020000b4
:020000040000fa
:04024c00fc020000b0
:020000040000fa
:04025000fc020000ac
:020000040000fa
:04025400fc020000a8
:020000040000fa
:04025800fc020000a4
:020000040000fa
:04025c00fc020000a0
:020000040000fa
:04026000fc0200009c
:020000040000fa
:04026400fc02000098
:020000040000fa
:04026800fc02000094
:020000040000fa
:04026c00fc02000090
:020000040000fa
:04027000fc0200008c
:020000040000fa
:04027400fc02000088
:020000040000fa
:04027800fc02000084
:020000040000fa
:04027c00fc02000080
:020000040000fa
:04028000fc0200007c
:020000040000fa
:04028400fc02000078
:020000040000fa
:04028800fc02000074
:020000040000fa
:04028c00fc02000070
:020000040000fa
:04029000fc0200006c
:020000040000fa
:04029400fc02000068
:020000040000fa
:04029800fc02000064
:020000040000fa
:04029c00fc02000060
:020000040000fa
:0402a000fc0200005c
:020000040000fa
:0402a400fc02000058
:020000040000fa
:0402a800fc02000054
:020000040000fa
:0402ac00fc02000050
:020000040000fa
:0402b000fc0200004c
:020000040000fa
:0402b400fc02000048
:020000040000fa
:0402b800fc02000044
:020000040000fa
:0402bc00fc02000040
:020000040000fa
:0402c000fc0200003c
:020000040000fa
:0402c400fc02000038
:020000040000fa
:0402c800fc02000034
:020000040000fa
:0402cc00fc02000030
:020000040000fa
:0402d000fc0200002c
:020000040000fa
:0402d400fc02000028
:020000040000fa
:0402d800fc02000024
:020000040000fa
:0402dc00fc02000020
:020000040000fa
:0402e000fc0200001c
:020000040000fa
:0402e400fc02000018
:020000040000fa
:0402e800fc02000014
:020000040000fa
:0402ec00fc02000010
:020000040000fa
:0402f000fc0200000c
:020000040000fa
:0402f400fc02000008
:020000040000fa
:0402f800fc02000004
:020000040000fa
:0402fc00fc02000000
:020000040000fa
:04030000fc020000fb
:020000040000fa
:04030400fc020000f7
:020000040000fa
:04030800fc020000f3
:020000040000fa
:04030c00fc020000ef
:020000040000fa
:04031000fc020000eb
:020000040000fa
:04031400fc020000e7
:020000040000fa
:04031800fc020000e3
:020000040000fa
:04031c00fc020000df
:020000040000fa
:04032000fc020000db
:020000040000fa
:04032400fc020000d7
:020000040000fa
:04032800fc020000d3
:020000040000fa
:04032c00fc020000cf
:020000040000fa
:04033000fc020000cb
:020000040000fa
:04033400fc020000c7
:020000040000fa
:04033800fc020000c3
:020000040000fa
:04033c00fc020000bf
:020000040000fa
:04034000fc020000bb
:020000040000fa
:04034400fc020000b7
:020000040000fa
:04034800fc020000b3
:020000040000fa
:04034c00fc020000af
:020000040000fa
:04035000fc020000ab
:020000040000fa
:04035400fc020000a7
:020000040000fa
:04035800fc020000a3
:020000040000fa
:04035c00fc0200009f
:020000040000fa
:04036000fc0200009b
:020000040000fa
:04036400fc02000097
:020000040000fa
:04036800fc02000093
:020000040000fa
:04036c00fc0200008f
:020000040000fa
:04037000fc0200008b
:020000040000fa
:04037400fc02000087
:020000040000fa
:04037800fc02000083
:020000040000fa
:04037c00fc0200007f
:020000040000fa
:04038000fc0200007b
:020000040000fa
:100400000f8020000e7f22000e01880000000000f7
:10041000000020000000e000020032000001200087
:100420002002880014000700750007000000e000ab
:1004300003003a0000002000010020000200370005
:100440000000200001002000810f70000100320038
:1004500014000700000020000000e000020032004d
:100460000000020000000000020302000000000083
:100470000040da000000fe004440a9000000200017
:100480000000e0000300320000002000a00188000e
:100490004440a800000006008a1f78008b1f7800e7
:1004a0000000060091018800800478000000eb0045
:1004b0001a003700e284440032a0b4009905ba0063
:1004c000e284440032a0b4009906ba00e2844400f9
:1004d00032a0b4000006eb00476fde00fd07b2005b
:1004e000636ce10003003a00ebff07000000eb0043
:1004f0000a003700606ce10004003a00005deb0088
:100500008b05e900fdff3e00040037006168e10053
:10051000010032000086eb000b00070019c7ba008b
:100520001905ba000e04e00003003a000a00e000da
:10053000e0ff3a0000000600fe07b2009e018800be
:100540008a047800f5ff3700395dba008b05e900b1
:100550000c003200295dba008b05e900080032006a
:100560000c00e00003003a00e284440032a0b40032
:10057000f5ff370019ddba008b05e900faff3a00f4
:100580008904e800e184440032a0b40000000600c1
:10059000000000000000000000000000000000005b
:1005a000000000000000000000000000000000004b
:1005b000000000000000000000000000000000003b
:1005c000000000000000000000000000000000002b
:1005d000000000000000000000000000000000001b
:1005e000000000000000000000000000000000000b
:1005f00000000000000000000040da000000fe00e3
:0406000000000500f1
:020000040000fa
:100604000a00fa00f0ff200060198800c822ef00f9
:10061400100020000016880010002000000f780051
:10062400110020000e80e800010878008000eb0033
:1006340064004700010878008000eb006600470072
:10064400010878008000eb0068004700010878008a
:1006540010168000610060000000e00014003a0001
:100664000000000010168000610060000000e0003f
:10067400fcff32001e00780074000700000f7800b1
:100684001e007800ea0f500025003a000000eb003d
:10069400000f780064004700100078006b0007002a
:1006a4008000780064004700010878001c003700cf
:1006b40010168000620060000000e00018003a009c
:1006c4000000000010168000620060000000e000de
:1006d400fcff32000e80e800100078005b00070089
:1006e400800078000e80e800010878000e80e800a1
:1006f40010007800ea0f500009003a008000eb0077
:100704000e80e800010878006600470010007800b9
:100714004e0007008000780066004700010878005a
:1007240010168000640060000000e00008003a0039
:10073400e33c200064004700100178009e0078002c
:10074400680047001000780003000100080037002b
:10075400e33c200066004700100178000e80e800aa
:100764009000780068004700100078000300010042
:10077400680047001000780000f0a7000000ea00bd
:100784000000e900cf00de0068004700010878009f
:10079400cc22ef00aeff37000600fa00000f78000d
:1007a4000e80e80001087800640047000208780021
:1007b4001e007800e10f500007003a00414320007a
:1007c4000e80e80010007800010001006140200064
:1007d4001e007800010001001e0078000000e00007
:1007e40007003a00414320006400470010007800ed
:1007f40001000100614020001e007800010001009a
:100804000080fa00000006000200fa00000f7800e1
:100814001e0078000000e00002003a00cd42a8006b
:10082400cd22a9001e007800e10f500002003a001a
:10083400cd22a800cd42a90000e22400010020003e
:100844006e0007000080fa00000006000200fa00b3
:10085400000f78001e0fe8001e0078000080fa00e8
:10086400000006000200fa00000f78001e00780065
:10087400cf80de009200200003002000820f500091
:10088400838f580029003e000060010009003700f2
:100894000b0037000d0037000f0037001100370040
:1008a4001300370015003700170037001900370010
:1008b4001b003700c0492000000001001b00370066
:1008c400604a20000000010018003700004b20009f
:1008d4000000010015003700a04b200000000100bb
:1008e40012003700404c2000000001000f003700c8
:1008f400e04c2000000001000c003700804d200077
:100904000000010009003700204e20000000010013
:1009140006003700c04e200000000100030037002d
:10092400604f200000000100000000000080fa0079
:10093400000006000000fa00f003200060168800a2
:100944000080fa00000006000000fa0060002000a9
:10095400601688000080fa00000006000000fa001b
:10096400b0092000601688000080fa00000006002c
:100974000000fa00f0082000601688000080fa00e9
:10098400000006000000fa00600a200060168800db
:100994000080fa00000006000000fa00d00a2000df
:1009a400601688000080fa00000006000000fa00cb
:1009b400d00b2000601688000080fa0000000600ba
:1009c4000000fa0070002000601688000080fa0021
:1009d400000006000000fa00f00b200060168800fa
:1009e4000080fa00000006000000fa00700a2000ef
:0c09f400601688000080fa000000060079
:020000040000fa
:100a0000f03fb1000180b10006003500ee0309009f
:100a100000000000403fb1000180b100fbff3d003d
:100a20001000b000203fb000020035000080090037
:080a30000000000000000600b8
:020000040000fa
:020000040001f9
:0457f000ffff0000b7
:020000040000fa
:020000040001f9
:0457f400ffff0000b3
:020000040000fa
:020000040001f9
:0457f800bdfa0000f6
:020000040000fa
:020000040001f9
:0457fc007f7f0000ab
:00000001FF
